{
  "contractName": "Transferencia",
  "abi": [
    {
      "inputs": [
        {
          "internalType": "string",
          "name": "novonomeorigem",
          "type": "string"
        },
        {
          "internalType": "string",
          "name": "novonomedstino",
          "type": "string"
        },
        {
          "internalType": "int256",
          "name": "novovalor",
          "type": "int256"
        }
      ],
      "stateMutability": "nonpayable",
      "type": "constructor"
    },
    {
      "inputs": [],
      "name": "nomedestino",
      "outputs": [
        {
          "internalType": "string",
          "name": "",
          "type": "string"
        }
      ],
      "stateMutability": "view",
      "type": "function",
      "constant": true
    },
    {
      "inputs": [],
      "name": "nomeorigem",
      "outputs": [
        {
          "internalType": "string",
          "name": "",
          "type": "string"
        }
      ],
      "stateMutability": "view",
      "type": "function",
      "constant": true
    },
    {
      "inputs": [],
      "name": "valor",
      "outputs": [
        {
          "internalType": "int256",
          "name": "",
          "type": "int256"
        }
      ],
      "stateMutability": "view",
      "type": "function",
      "constant": true
    },
    {
      "inputs": [
        {
          "internalType": "string",
          "name": "novonomeorigem",
          "type": "string"
        }
      ],
      "name": "setNomeOrigem",
      "outputs": [],
      "stateMutability": "nonpayable",
      "type": "function"
    },
    {
      "inputs": [
        {
          "internalType": "string",
          "name": "novonomeorigem",
          "type": "string"
        },
        {
          "internalType": "string",
          "name": "novonomedstino",
          "type": "string"
        },
        {
          "internalType": "int256",
          "name": "novovalor",
          "type": "int256"
        }
      ],
      "name": "atualizarTransferencia",
      "outputs": [],
      "stateMutability": "nonpayable",
      "type": "function"
    }
  ],
  "bytecode": "0x60806040523480156200001157600080fd5b5060405162000eb138038062000eb1833981810160405281019062000037919062000239565b82600090816200004891906200051e565b5081600190816200005a91906200051e565b508060028190555050505062000605565b6000604051905090565b600080fd5b600080fd5b600080fd5b600080fd5b6000601f19601f8301169050919050565b7f4e487b7100000000000000000000000000000000000000000000000000000000600052604160045260246000fd5b620000d48262000089565b810181811067ffffffffffffffff82111715620000f657620000f56200009a565b5b80604052505050565b60006200010b6200006b565b9050620001198282620000c9565b919050565b600067ffffffffffffffff8211156200013c576200013b6200009a565b5b620001478262000089565b9050602081019050919050565b60005b838110156200017457808201518184015260208101905062000157565b60008484015250505050565b60006200019762000191846200011e565b620000ff565b905082815260208101848484011115620001b657620001b562000084565b5b620001c384828562000154565b509392505050565b600082601f830112620001e357620001e26200007f565b5b8151620001f584826020860162000180565b91505092915050565b6000819050919050565b6200021381620001fe565b81146200021f57600080fd5b50565b600081519050620002338162000208565b92915050565b60008060006060848603121562000255576200025462000075565b5b600084015167ffffffffffffffff8111156200027657620002756200007a565b5b6200028486828701620001cb565b935050602084015167ffffffffffffffff811115620002a857620002a76200007a565b5b620002b686828701620001cb565b9250506040620002c98682870162000222565b9150509250925092565b600081519050919050565b7f4e487b7100000000000000000000000000000000000000000000000000000000600052602260045260246000fd5b600060028204905060018216806200032657607f821691505b6020821081036200033c576200033b620002de565b5b50919050565b60008190508160005260206000209050919050565b60006020601f8301049050919050565b600082821b905092915050565b600060088302620003a67fffffffffffffffffffffffffffffffffffffffffffffffffffffffffffffffff8262000367565b620003b2868362000367565b95508019841693508086168417925050509392505050565b6000819050919050565b6000819050919050565b6000620003ff620003f9620003f384620003ca565b620003d4565b620003ca565b9050919050565b6000819050919050565b6200041b83620003de565b620004336200042a8262000406565b84845462000374565b825550505050565b600090565b6200044a6200043b565b6200045781848462000410565b505050565b5b818110156200047f576200047360008262000440565b6001810190506200045d565b5050565b601f821115620004ce57620004988162000342565b620004a38462000357565b81016020851015620004b3578190505b620004cb620004c28562000357565b8301826200045c565b50505b505050565b600082821c905092915050565b6000620004f360001984600802620004d3565b1980831691505092915050565b60006200050e8383620004e0565b9150826002028217905092915050565b6200052982620002d3565b67ffffffffffffffff8111156200054557620005446200009a565b5b6200055182546200030d565b6200055e82828562000483565b600060209050601f83116001811462000596576000841562000581578287015190505b6200058d858262000500565b865550620005fd565b601f198416620005a68662000342565b60005b82811015620005d057848901518255600182019150602085019450602081019050620005a9565b86831015620005f05784890151620005ec601f891682620004e0565b8355505b6001600288020188555050505b505050505050565b61089c80620006156000396000f3fe608060405234801561001057600080fd5b50600436106100575760003560e01c8063256c7dfa1461005c57806351f187131461007a5780637f50498d14610098578063e993223a146100b4578063ecbac7cf146100d0575b600080fd5b6100646100ee565b60405161007191906102df565b60405180910390f35b61008261017c565b60405161008f91906102df565b60405180910390f35b6100b260048036038101906100ad919061044a565b61020a565b005b6100ce60048036038101906100c991906104c9565b61021d565b005b6100d8610249565b6040516100e59190610563565b60405180910390f35b600080546100fb906105ad565b80601f0160208091040260200160405190810160405280929190818152602001828054610127906105ad565b80156101745780601f1061014957610100808354040283529160200191610174565b820191906000526020600020905b81548152906001019060200180831161015757829003601f168201915b505050505081565b60018054610189906105ad565b80601f01602080910402602001604051908101604052809291908181526020018280546101b5906105ad565b80156102025780601f106101d757610100808354040283529160200191610202565b820191906000526020600020905b8154815290600101906020018083116101e557829003601f168201915b505050505081565b80600090816102199190610794565b5050565b826000908161022c9190610794565b50816001908161023c9190610794565b5080600281905550505050565b60025481565b600081519050919050565b600082825260208201905092915050565b60005b8381101561028957808201518184015260208101905061026e565b60008484015250505050565b6000601f19601f8301169050919050565b60006102b18261024f565b6102bb818561025a565b93506102cb81856020860161026b565b6102d481610295565b840191505092915050565b600060208201905081810360008301526102f981846102a6565b905092915050565b6000604051905090565b600080fd5b600080fd5b600080fd5b600080fd5b7f4e487b7100000000000000000000000000000000000000000000000000000000600052604160045260246000fd5b61035782610295565b810181811067ffffffffffffffff821117156103765761037561031f565b5b80604052505050565b6000610389610301565b9050610395828261034e565b919050565b600067ffffffffffffffff8211156103b5576103b461031f565b5b6103be82610295565b9050602081019050919050565b82818337600083830152505050565b60006103ed6103e88461039a565b61037f565b9050828152602081018484840111156104095761040861031a565b5b6104148482856103cb565b509392505050565b600082601f83011261043157610430610315565b5b81356104418482602086016103da565b91505092915050565b6000602082840312156104605761045f61030b565b5b600082013567ffffffffffffffff81111561047e5761047d610310565b5b61048a8482850161041c565b91505092915050565b6000819050919050565b6104a681610493565b81146104b157600080fd5b50565b6000813590506104c38161049d565b92915050565b6000806000606084860312156104e2576104e161030b565b5b600084013567ffffffffffffffff811115610500576104ff610310565b5b61050c8682870161041c565b935050602084013567ffffffffffffffff81111561052d5761052c610310565b5b6105398682870161041c565b925050604061054a868287016104b4565b9150509250925092565b61055d81610493565b82525050565b60006020820190506105786000830184610554565b92915050565b7f4e487b7100000000000000000000000000000000000000000000000000000000600052602260045260246000fd5b600060028204905060018216806105c557607f821691505b6020821081036105d8576105d761057e565b5b50919050565b60008190508160005260206000209050919050565b60006020601f8301049050919050565b600082821b905092915050565b6000600883026106407fffffffffffffffffffffffffffffffffffffffffffffffffffffffffffffffff82610603565b61064a8683610603565b95508019841693508086168417925050509392505050565b6000819050919050565b6000819050919050565b600061069161068c61068784610662565b61066c565b610662565b9050919050565b6000819050919050565b6106ab83610676565b6106bf6106b782610698565b848454610610565b825550505050565b600090565b6106d46106c7565b6106df8184846106a2565b505050565b5b81811015610703576106f86000826106cc565b6001810190506106e5565b5050565b601f82111561074857610719816105de565b610722846105f3565b81016020851015610731578190505b61074561073d856105f3565b8301826106e4565b50505b505050565b600082821c905092915050565b600061076b6000198460080261074d565b1980831691505092915050565b6000610784838361075a565b9150826002028217905092915050565b61079d8261024f565b67ffffffffffffffff8111156107b6576107b561031f565b5b6107c082546105ad565b6107cb828285610707565b600060209050601f8311600181146107fe57600084156107ec578287015190505b6107f68582610778565b86555061085e565b601f19841661080c866105de565b60005b828110156108345784890151825560018201915060208501945060208101905061080f565b86831015610851578489015161084d601f89168261075a565b8355505b6001600288020188555050505b50505050505056fea2646970667358221220ddbd07e2e02e070851aeba4e72c5a8e95063a2fd09d23ab74f4602f58db1cfbb64736f6c63430008180033",
  "immutableReferences": {},
  "source": "// SPDX-License-Identifier: GPL-3.0\npragma solidity =0.8.24;\n\ncontract Transferencia {\n    \n        string public nomeorigem;\n        string public nomedestino;\n        int public valor;\n\n        constructor (string memory novonomeorigem, string memory novonomedstino, int novovalor) {\n\n            nomeorigem = novonomeorigem;\n            nomedestino = novonomedstino;\n            valor = novovalor;\n\n        }\n        \n        function setNomeOrigem(string memory novonomeorigem) public {\n\n            nomeorigem = novonomeorigem;\n\n        }\n\n        function atualizarTransferencia(string memory novonomeorigem, string memory novonomedstino, int novovalor) public {\n            nomeorigem = novonomeorigem;\n            nomedestino = novonomedstino;\n            valor = novovalor;\n        }\n}",
  "sourcePath": "/Users/esensato/Documents/espm/repo/tecem-2024-02/aula/blockchain/contracts/Transferencia.sol",
  "compiler": {
    "name": "solc",
    "version": "0.8.24+commit.e11b9ed9.Emscripten.clang"
  },
  "schemaVersion": "3.4.16",
  "updatedAt": "2024-11-05T23:02:53.733Z",
  "networkType": "ethereum",
  "devdoc": {
    "kind": "dev",
    "methods": {},
    "version": 1
  },
  "userdoc": {
    "kind": "user",
    "methods": {},
    "version": 1
  }
}